{
  "contractName": "Aggregator",
  "abi": [
    {
      "constant": true,
      "inputs": [
        {
          "name": "",
          "type": "address"
        }
      ],
      "name": "oracleStruct",
      "outputs": [
        {
          "name": "contractAddr",
          "type": "address"
        },
        {
          "name": "provider",
          "type": "address"
        },
        {
          "name": "buyer",
          "type": "address"
        },
        {
          "name": "data",
          "type": "string"
        },
        {
          "name": "needsUpdate",
          "type": "bool"
        },
        {
          "name": "lastUpdate",
          "type": "uint256"
        },
        {
          "name": "dataType",
          "type": "string"
        },
        {
          "name": "dataFormat",
          "type": "string"
        },
        {
          "name": "updateCost",
          "type": "uint256"
        },
        {
          "name": "earned",
          "type": "uint256"
        },
        {
          "name": "deposited",
          "type": "uint256"
        },
        {
          "name": "updateCycle",
          "type": "uint256"
        }
      ],
      "payable": false,
      "stateMutability": "view",
      "type": "function"
    },
    {
      "constant": true,
      "inputs": [
        {
          "name": "",
          "type": "address"
        },
        {
          "name": "",
          "type": "uint256"
        }
      ],
      "name": "contractsTaken",
      "outputs": [
        {
          "name": "",
          "type": "address"
        }
      ],
      "payable": false,
      "stateMutability": "view",
      "type": "function"
    },
    {
      "constant": true,
      "inputs": [
        {
          "name": "",
          "type": "address"
        }
      ],
      "name": "contractExists",
      "outputs": [
        {
          "name": "",
          "type": "bool"
        }
      ],
      "payable": false,
      "stateMutability": "view",
      "type": "function"
    },
    {
      "constant": true,
      "inputs": [
        {
          "name": "",
          "type": "address"
        },
        {
          "name": "",
          "type": "uint256"
        }
      ],
      "name": "contractsOwned",
      "outputs": [
        {
          "name": "",
          "type": "address"
        }
      ],
      "payable": false,
      "stateMutability": "view",
      "type": "function"
    },
    {
      "constant": false,
      "inputs": [
        {
          "name": "dtype",
          "type": "string"
        },
        {
          "name": "dformat",
          "type": "string"
        },
        {
          "name": "cost",
          "type": "uint256"
        },
        {
          "name": "cycle",
          "type": "uint256"
        }
      ],
      "name": "createOracle",
      "outputs": [
        {
          "name": "success",
          "type": "bool"
        }
      ],
      "payable": false,
      "stateMutability": "nonpayable",
      "type": "function"
    },
    {
      "constant": true,
      "inputs": [
        {
          "name": "oracle",
          "type": "address"
        }
      ],
      "name": "getAddressStruct",
      "outputs": [
        {
          "name": "contractAddr",
          "type": "address"
        },
        {
          "name": "provider",
          "type": "address"
        },
        {
          "name": "buyer",
          "type": "address"
        },
        {
          "name": "data",
          "type": "string"
        },
        {
          "name": "needsUpdate",
          "type": "bool"
        },
        {
          "name": "lastUpdate",
          "type": "uint256"
        },
        {
          "name": "dataType",
          "type": "string"
        },
        {
          "name": "dataFormat",
          "type": "string"
        },
        {
          "name": "updateCost",
          "type": "uint256"
        },
        {
          "name": "earned",
          "type": "uint256"
        },
        {
          "name": "deposited",
          "type": "uint256"
        },
        {
          "name": "updateCycle",
          "type": "uint256"
        }
      ],
      "payable": false,
      "stateMutability": "view",
      "type": "function"
    },
    {
      "constant": true,
      "inputs": [
        {
          "name": "target",
          "type": "address"
        }
      ],
      "name": "getTakenLengthAddr",
      "outputs": [
        {
          "name": "length",
          "type": "uint256"
        }
      ],
      "payable": false,
      "stateMutability": "view",
      "type": "function"
    },
    {
      "constant": true,
      "inputs": [
        {
          "name": "target",
          "type": "address"
        }
      ],
      "name": "getOwnedLengthAddr",
      "outputs": [
        {
          "name": "length",
          "type": "uint256"
        }
      ],
      "payable": false,
      "stateMutability": "view",
      "type": "function"
    },
    {
      "constant": true,
      "inputs": [
        {
          "name": "target",
          "type": "address"
        },
        {
          "name": "index",
          "type": "uint256"
        }
      ],
      "name": "getContractTakenAddr",
      "outputs": [
        {
          "name": "taken",
          "type": "address"
        }
      ],
      "payable": false,
      "stateMutability": "view",
      "type": "function"
    },
    {
      "constant": true,
      "inputs": [
        {
          "name": "target",
          "type": "address"
        },
        {
          "name": "index",
          "type": "uint256"
        }
      ],
      "name": "getContractOwnedAddr",
      "outputs": [
        {
          "name": "owned",
          "type": "address"
        }
      ],
      "payable": false,
      "stateMutability": "view",
      "type": "function"
    },
    {
      "constant": true,
      "inputs": [],
      "name": "getTakenLength",
      "outputs": [
        {
          "name": "length",
          "type": "uint256"
        }
      ],
      "payable": false,
      "stateMutability": "view",
      "type": "function"
    },
    {
      "constant": true,
      "inputs": [],
      "name": "getOwnedLength",
      "outputs": [
        {
          "name": "length",
          "type": "uint256"
        }
      ],
      "payable": false,
      "stateMutability": "view",
      "type": "function"
    },
    {
      "constant": true,
      "inputs": [
        {
          "name": "index",
          "type": "uint256"
        }
      ],
      "name": "getContractTaken",
      "outputs": [
        {
          "name": "taken",
          "type": "address"
        }
      ],
      "payable": false,
      "stateMutability": "view",
      "type": "function"
    },
    {
      "constant": true,
      "inputs": [
        {
          "name": "index",
          "type": "uint256"
        }
      ],
      "name": "getContractOwned",
      "outputs": [
        {
          "name": "owned",
          "type": "address"
        }
      ],
      "payable": false,
      "stateMutability": "view",
      "type": "function"
    },
    {
      "constant": false,
      "inputs": [
        {
          "name": "oracle",
          "type": "address"
        }
      ],
      "name": "takeContract",
      "outputs": [
        {
          "name": "success",
          "type": "bool"
        }
      ],
      "payable": false,
      "stateMutability": "nonpayable",
      "type": "function"
    },
    {
      "constant": false,
      "inputs": [
        {
          "name": "oracle",
          "type": "address"
        }
      ],
      "name": "depositTo",
      "outputs": [
        {
          "name": "success",
          "type": "bool"
        }
      ],
      "payable": true,
      "stateMutability": "payable",
      "type": "function"
    },
    {
      "constant": false,
      "inputs": [
        {
          "name": "oracle",
          "type": "address"
        },
        {
          "name": "amount",
          "type": "uint256"
        }
      ],
      "name": "withdrawFrom",
      "outputs": [
        {
          "name": "success",
          "type": "bool"
        }
      ],
      "payable": false,
      "stateMutability": "nonpayable",
      "type": "function"
    },
    {
      "constant": false,
      "inputs": [
        {
          "name": "oracle",
          "type": "address"
        },
        {
          "name": "data",
          "type": "string"
        }
      ],
      "name": "updateContract",
      "outputs": [
        {
          "name": "success",
          "type": "bool"
        }
      ],
      "payable": false,
      "stateMutability": "nonpayable",
      "type": "function"
    },
    {
      "constant": false,
      "inputs": [
        {
          "name": "oracle",
          "type": "address"
        }
      ],
      "name": "requestContract",
      "outputs": [
        {
          "name": "success",
          "type": "bool"
        }
      ],
      "payable": false,
      "stateMutability": "nonpayable",
      "type": "function"
    },
    {
      "constant": false,
      "inputs": [
        {
          "name": "oracle",
          "type": "address"
        }
      ],
      "name": "endSell",
      "outputs": [
        {
          "name": "success",
          "type": "bool"
        }
      ],
      "payable": false,
      "stateMutability": "nonpayable",
      "type": "function"
    },
    {
      "constant": false,
      "inputs": [
        {
          "name": "oracle",
          "type": "address"
        }
      ],
      "name": "endBuy",
      "outputs": [
        {
          "name": "success",
          "type": "bool"
        }
      ],
      "payable": false,
      "stateMutability": "nonpayable",
      "type": "function"
    },
    {
      "constant": false,
      "inputs": [
        {
          "name": "oracle",
          "type": "address"
        },
        {
          "name": "dtype",
          "type": "string"
        }
      ],
      "name": "setType",
      "outputs": [
        {
          "name": "success",
          "type": "bool"
        }
      ],
      "payable": false,
      "stateMutability": "nonpayable",
      "type": "function"
    },
    {
      "constant": false,
      "inputs": [
        {
          "name": "oracle",
          "type": "address"
        },
        {
          "name": "format",
          "type": "string"
        }
      ],
      "name": "setFormat",
      "outputs": [
        {
          "name": "success",
          "type": "bool"
        }
      ],
      "payable": false,
      "stateMutability": "nonpayable",
      "type": "function"
    },
    {
      "constant": false,
      "inputs": [
        {
          "name": "oracle",
          "type": "address"
        },
        {
          "name": "cycle",
          "type": "uint256"
        }
      ],
      "name": "setCycle",
      "outputs": [
        {
          "name": "success",
          "type": "bool"
        }
      ],
      "payable": false,
      "stateMutability": "nonpayable",
      "type": "function"
    },
    {
      "constant": false,
      "inputs": [
        {
          "name": "oracle",
          "type": "address"
        },
        {
          "name": "cost",
          "type": "uint256"
        }
      ],
      "name": "setCost",
      "outputs": [
        {
          "name": "success",
          "type": "bool"
        }
      ],
      "payable": false,
      "stateMutability": "nonpayable",
      "type": "function"
    }
  ],
  "bytecode": "0x608060405234801561001057600080fd5b506159a5806100206000396000f3fe6080604052600436106200015d576000357c010000000000000000000000000000000000000000000000000000000090048063098a9b2e146200016257806324514bd114620003d85780632d045a17146200047757806354102f7214620004e4578063597a06cd146200054d5780635afe435f14620007c35780637709bc7814620008ca57806378aaaac314620009375780637f1014e014620009a45780639470b0bd1462000aab57806398dfeb0a1462000b225780639eeb44301462000c29578063ab5810c91462000c96578063b760faf91462000e2b578063b763aef71462000e8a578063baa2531f1462000f01578063c475c39d1462000f2f578063d11c199c1462000fae578063dcb62c291462001017578063f0938fa214620010b6578063f38de3d51462001155578063f43ddfd814620011cc578063fa898145146200124b578063fb4a691b1462001279578063fc0835001462001318575b600080fd5b3480156200016f57600080fd5b50620001b5600480360360208110156200018857600080fd5b81019080803573ffffffffffffffffffffffffffffffffffffffff16906020019092919050505062001385565b604051808d73ffffffffffffffffffffffffffffffffffffffff1673ffffffffffffffffffffffffffffffffffffffff1681526020018c73ffffffffffffffffffffffffffffffffffffffff1673ffffffffffffffffffffffffffffffffffffffff1681526020018b73ffffffffffffffffffffffffffffffffffffffff1673ffffffffffffffffffffffffffffffffffffffff168152602001806020018a151515158152602001898152602001806020018060200188815260200187815260200186815260200185815260200184810384528d818151815260200191508051906020019080838360005b83811015620002bd578082015181840152602081019050620002a0565b50505050905090810190601f168015620002eb5780820380516001836020036101000a031916815260200191505b5084810383528a818151815260200191508051906020019080838360005b838110156200032657808201518184015260208101905062000309565b50505050905090810190601f168015620003545780820380516001836020036101000a031916815260200191505b50848103825289818151815260200191508051906020019080838360005b838110156200038f57808201518184015260208101905062000372565b50505050905090810190601f168015620003bd5780820380516001836020036101000a031916815260200191505b509f5050505050505050505050505050505060405180910390f35b348015620003e557600080fd5b506200043560048036036040811015620003fe57600080fd5b81019080803573ffffffffffffffffffffffffffffffffffffffff1690602001909291908035906020019092919050505062001626565b604051808273ffffffffffffffffffffffffffffffffffffffff1673ffffffffffffffffffffffffffffffffffffffff16815260200191505060405180910390f35b3480156200048457600080fd5b50620004ca600480360360208110156200049d57600080fd5b81019080803573ffffffffffffffffffffffffffffffffffffffff16906020019092919050505062001674565b604051808215151515815260200191505060405180910390f35b348015620004f157600080fd5b5062000537600480360360208110156200050a57600080fd5b81019080803573ffffffffffffffffffffffffffffffffffffffff169060200190929190505050620018bb565b6040518082815260200191505060405180910390f35b3480156200055a57600080fd5b50620005a0600480360360208110156200057357600080fd5b81019080803573ffffffffffffffffffffffffffffffffffffffff16906020019092919050505062001907565b604051808d73ffffffffffffffffffffffffffffffffffffffff1673ffffffffffffffffffffffffffffffffffffffff1681526020018c73ffffffffffffffffffffffffffffffffffffffff1673ffffffffffffffffffffffffffffffffffffffff1681526020018b73ffffffffffffffffffffffffffffffffffffffff1673ffffffffffffffffffffffffffffffffffffffff168152602001806020018a151515158152602001898152602001806020018060200188815260200187815260200186815260200185815260200184810384528d818151815260200191508051906020019080838360005b83811015620006a85780820151818401526020810190506200068b565b50505050905090810190601f168015620006d65780820380516001836020036101000a031916815260200191505b5084810383528a818151815260200191508051906020019080838360005b8381101562000711578082015181840152602081019050620006f4565b50505050905090810190601f1680156200073f5780820380516001836020036101000a031916815260200191505b50848103825289818151815260200191508051906020019080838360005b838110156200077a5780820151818401526020810190506200075d565b50505050905090810190601f168015620007a85780820380516001836020036101000a031916815260200191505b509f5050505050505050505050505050505060405180910390f35b348015620007d057600080fd5b50620008b060048036036040811015620007e957600080fd5b81019080803573ffffffffffffffffffffffffffffffffffffffff169060200190929190803590602001906401000000008111156200082757600080fd5b8201836020820111156200083a57600080fd5b803590602001918460018302840111640100000000831117156200085d57600080fd5b91908080601f016020809104026020016040519081016040528093929190818152602001838380828437600081840152601f19601f82011690508083019250505050505050919291929050505062001d73565b604051808215151515815260200191505060405180910390f35b348015620008d757600080fd5b506200091d60048036036020811015620008f057600080fd5b81019080803573ffffffffffffffffffffffffffffffffffffffff1690602001909291905050506200204f565b604051808215151515815260200191505060405180910390f35b3480156200094457600080fd5b506200098a600480360360208110156200095d57600080fd5b81019080803573ffffffffffffffffffffffffffffffffffffffff1690602001909291905050506200206f565b604051808215151515815260200191505060405180910390f35b348015620009b157600080fd5b5062000a9160048036036040811015620009ca57600080fd5b81019080803573ffffffffffffffffffffffffffffffffffffffff1690602001909291908035906020019064010000000081111562000a0857600080fd5b82018360208201111562000a1b57600080fd5b8035906020019184600183028401116401000000008311171562000a3e57600080fd5b91908080601f016020809104026020016040519081016040528093929190818152602001838380828437600081840152601f19601f82011690508083019250505050505050919291929050505062002275565b604051808215151515815260200191505060405180910390f35b34801562000ab857600080fd5b5062000b086004803603604081101562000ad157600080fd5b81019080803573ffffffffffffffffffffffffffffffffffffffff1690602001909291908035906020019092919050505062002483565b604051808215151515815260200191505060405180910390f35b34801562000b2f57600080fd5b5062000c0f6004803603604081101562000b4857600080fd5b81019080803573ffffffffffffffffffffffffffffffffffffffff1690602001909291908035906020019064010000000081111562000b8657600080fd5b82018360208201111562000b9957600080fd5b8035906020019184600183028401116401000000008311171562000bbc57600080fd5b91908080601f016020809104026020016040519081016040528093929190818152602001838380828437600081840152601f19601f820116905080830192505050505050509192919290505050620025f6565b604051808215151515815260200191505060405180910390f35b34801562000c3657600080fd5b5062000c7c6004803603602081101562000c4f57600080fd5b81019080803573ffffffffffffffffffffffffffffffffffffffff16906020019092919050505062002804565b604051808215151515815260200191505060405180910390f35b34801562000ca357600080fd5b5062000e116004803603608081101562000cbc57600080fd5b810190808035906020019064010000000081111562000cda57600080fd5b82018360208201111562000ced57600080fd5b8035906020019184600183028401116401000000008311171562000d1057600080fd5b91908080601f016020809104026020016040519081016040528093929190818152602001838380828437600081840152601f19601f8201169050808301925050505050505091929192908035906020019064010000000081111562000d7457600080fd5b82018360208201111562000d8757600080fd5b8035906020019184600183028401116401000000008311171562000daa57600080fd5b91908080601f016020809104026020016040519081016040528093929190818152602001838380828437600081840152601f19601f820116905080830192505050505050509192919290803590602001909291908035906020019092919050505062002932565b604051808215151515815260200191505060405180910390f35b62000e706004803603602081101562000e4357600080fd5b81019080803573ffffffffffffffffffffffffffffffffffffffff16906020019092919050505062002e81565b604051808215151515815260200191505060405180910390f35b34801562000e9757600080fd5b5062000ee76004803603604081101562000eb057600080fd5b81019080803573ffffffffffffffffffffffffffffffffffffffff1690602001909291908035906020019092919050505062002f3a565b604051808215151515815260200191505060405180910390f35b34801562000f0e57600080fd5b5062000f19620030ce565b6040518082815260200191505060405180910390f35b34801562000f3c57600080fd5b5062000f6c6004803603602081101562000f5557600080fd5b810190808035906020019092919050505062003118565b604051808273ffffffffffffffffffffffffffffffffffffffff1673ffffffffffffffffffffffffffffffffffffffff16815260200191505060405180910390f35b34801562000fbb57600080fd5b50620010016004803603602081101562000fd457600080fd5b81019080803573ffffffffffffffffffffffffffffffffffffffff169060200190929190505050620031f0565b6040518082815260200191505060405180910390f35b3480156200102457600080fd5b5062001074600480360360408110156200103d57600080fd5b81019080803573ffffffffffffffffffffffffffffffffffffffff169060200190929190803590602001909291905050506200323c565b604051808273ffffffffffffffffffffffffffffffffffffffff1673ffffffffffffffffffffffffffffffffffffffff16815260200191505060405180910390f35b348015620010c357600080fd5b506200111360048036036040811015620010dc57600080fd5b81019080803573ffffffffffffffffffffffffffffffffffffffff1690602001909291908035906020019092919050505062003315565b604051808273ffffffffffffffffffffffffffffffffffffffff1673ffffffffffffffffffffffffffffffffffffffff16815260200191505060405180910390f35b3480156200116257600080fd5b50620011b2600480360360408110156200117b57600080fd5b81019080803573ffffffffffffffffffffffffffffffffffffffff16906020019092919080359060200190929190505050620033ee565b604051808215151515815260200191505060405180910390f35b348015620011d957600080fd5b506200120960048036036020811015620011f257600080fd5b810190808035906020019092919050505062003582565b604051808273ffffffffffffffffffffffffffffffffffffffff1673ffffffffffffffffffffffffffffffffffffffff16815260200191505060405180910390f35b3480156200125857600080fd5b50620012636200365a565b6040518082815260200191505060405180910390f35b3480156200128657600080fd5b50620012d6600480360360408110156200129f57600080fd5b81019080803573ffffffffffffffffffffffffffffffffffffffff16906020019092919080359060200190929190505050620036a4565b604051808273ffffffffffffffffffffffffffffffffffffffff1673ffffffffffffffffffffffffffffffffffffffff16815260200191505060405180910390f35b3480156200132557600080fd5b506200136b600480360360208110156200133e57600080fd5b81019080803573ffffffffffffffffffffffffffffffffffffffff169060200190929190505050620036f2565b604051808215151515815260200191505060405180910390f35b60006020528060005260406000206000915090508060000160009054906101000a900473ffffffffffffffffffffffffffffffffffffffff16908060010160009054906101000a900473ffffffffffffffffffffffffffffffffffffffff16908060020160009054906101000a900473ffffffffffffffffffffffffffffffffffffffff1690806003018054600181600116156101000203166002900480601f016020809104026020016040519081016040528092919081815260200182805460018160011615610100020316600290048015620014a75780601f106200147b57610100808354040283529160200191620014a7565b820191906000526020600020905b8154815290600101906020018083116200148957829003601f168201915b5050505050908060040160009054906101000a900460ff1690806005015490806006018054600181600116156101000203166002900480601f016020809104026020016040519081016040528092919081815260200182805460018160011615610100020316600290048015620015625780601f10620015365761010080835404028352916020019162001562565b820191906000526020600020905b8154815290600101906020018083116200154457829003601f168201915b505050505090806007018054600181600116156101000203166002900480601f016020809104026020016040519081016040528092919081815260200182805460018160011615610100020316600290048015620016045780601f10620015d85761010080835404028352916020019162001604565b820191906000526020600020905b815481529060010190602001808311620015e657829003601f168201915b50505050509080600801549080600901549080600a01549080600b015490508c565b6002602052816000526040600020818154811015156200164257fe5b906000526020600020016000915091509054906101000a900473ffffffffffffffffffffffffffffffffffffffff1681565b600080600360008473ffffffffffffffffffffffffffffffffffffffff1673ffffffffffffffffffffffffffffffffffffffff16815260200190815260200160002060009054906101000a900460ff161515620016d6576000915050620018b6565b8290508073ffffffffffffffffffffffffffffffffffffffff1663b20c1a2b6040518163ffffffff167c0100000000000000000000000000000000000000000000000000000000028152600401602060405180830381600087803b1580156200173e57600080fd5b505af115801562001753573d6000803e3d6000fd5b505050506040513d60208110156200176a57600080fd5b810190808051906020019092919050505015156200178d576000915050620018b6565b600260003373ffffffffffffffffffffffffffffffffffffffff1673ffffffffffffffffffffffffffffffffffffffff1681526020019081526020016000208390806001815401808255809150509060018203906000526020600020016000909192909190916101000a81548173ffffffffffffffffffffffffffffffffffffffff021916908373ffffffffffffffffffffffffffffffffffffffff16021790555050336000808573ffffffffffffffffffffffffffffffffffffffff1673ffffffffffffffffffffffffffffffffffffffff16815260200190815260200160002060020160006101000a81548173ffffffffffffffffffffffffffffffffffffffff021916908373ffffffffffffffffffffffffffffffffffffffff16021790555060019150505b919050565b6000600160008373ffffffffffffffffffffffffffffffffffffffff1673ffffffffffffffffffffffffffffffffffffffff168152602001908152602001600020805490509050919050565b60008060006060600080606080600080600080600360008e73ffffffffffffffffffffffffffffffffffffffff1673ffffffffffffffffffffffffffffffffffffffff16815260200190815260200160002060009054906101000a900460ff1615156200197357600080fd5b6200197d6200416a565b6000808f73ffffffffffffffffffffffffffffffffffffffff1673ffffffffffffffffffffffffffffffffffffffff16815260200190815260200160002061018060405190810160405290816000820160009054906101000a900473ffffffffffffffffffffffffffffffffffffffff1673ffffffffffffffffffffffffffffffffffffffff1673ffffffffffffffffffffffffffffffffffffffff1681526020016001820160009054906101000a900473ffffffffffffffffffffffffffffffffffffffff1673ffffffffffffffffffffffffffffffffffffffff1673ffffffffffffffffffffffffffffffffffffffff1681526020016002820160009054906101000a900473ffffffffffffffffffffffffffffffffffffffff1673ffffffffffffffffffffffffffffffffffffffff1673ffffffffffffffffffffffffffffffffffffffff168152602001600382018054600181600116156101000203166002900480601f01602080910402602001604051908101604052809291908181526020018280546001816001161561010002031660029004801562001b675780601f1062001b3b5761010080835404028352916020019162001b67565b820191906000526020600020905b81548152906001019060200180831162001b4957829003601f168201915b505050505081526020016004820160009054906101000a900460ff1615151515815260200160058201548152602001600682018054600181600116156101000203166002900480601f01602080910402602001604051908101604052809291908181526020018280546001816001161561010002031660029004801562001c325780601f1062001c065761010080835404028352916020019162001c32565b820191906000526020600020905b81548152906001019060200180831162001c1457829003601f168201915b50505050508152602001600782018054600181600116156101000203166002900480601f01602080910402602001604051908101604052809291908181526020018280546001816001161561010002031660029004801562001cd85780601f1062001cac5761010080835404028352916020019162001cd8565b820191906000526020600020905b81548152906001019060200180831162001cba57829003601f168201915b505050505081526020016008820154815260200160098201548152602001600a8201548152602001600b82015481525050905080600001519c5080602001519b5080604001519a5080606001519950806080015198508060a0015197508060c0015196508060e00151955080610100015194508061012001519350806101400151925080610160015191505091939597999b5091939597999b565b600080600360008573ffffffffffffffffffffffffffffffffffffffff1673ffffffffffffffffffffffffffffffffffffffff16815260200190815260200160002060009054906101000a900460ff16151562001dd557600091505062002049565b62001de13385620038f8565b151562001df357600091505062002049565b839050426000808673ffffffffffffffffffffffffffffffffffffffff1673ffffffffffffffffffffffffffffffffffffffff168152602001908152602001600020600b01546000808773ffffffffffffffffffffffffffffffffffffffff1673ffffffffffffffffffffffffffffffffffffffff168152602001908152602001600020600501540111151562001fa5576000808573ffffffffffffffffffffffffffffffffffffffff1673ffffffffffffffffffffffffffffffffffffffff168152602001908152602001600020600801546000808673ffffffffffffffffffffffffffffffffffffffff1673ffffffffffffffffffffffffffffffffffffffff168152602001908152602001600020600901600082825401925050819055506000808573ffffffffffffffffffffffffffffffffffffffff1673ffffffffffffffffffffffffffffffffffffffff168152602001908152602001600020600801546000808673ffffffffffffffffffffffffffffffffffffffff1673ffffffffffffffffffffffffffffffffffffffff168152602001908152602001600020600a01600082825403925050819055505b826000808673ffffffffffffffffffffffffffffffffffffffff1673ffffffffffffffffffffffffffffffffffffffff168152602001908152602001600020600301908051906020019062001ffc92919062004210565b50426000808673ffffffffffffffffffffffffffffffffffffffff1673ffffffffffffffffffffffffffffffffffffffff1681526020019081526020016000206005018190555060019150505b92915050565b60036020528060005260406000206000915054906101000a900460ff1681565b600080600360008473ffffffffffffffffffffffffffffffffffffffff1673ffffffffffffffffffffffffffffffffffffffff16815260200190815260200160002060009054906101000a900460ff161515620020d157600091505062002270565b620020dd3384620038f8565b1515620020ef57600091505062002270565b8290508073ffffffffffffffffffffffffffffffffffffffff166378aaaac3336040518263ffffffff167c0100000000000000000000000000000000000000000000000000000000028152600401808273ffffffffffffffffffffffffffffffffffffffff1673ffffffffffffffffffffffffffffffffffffffff168152602001915050602060405180830381600087803b1580156200218e57600080fd5b505af1158015620021a3573d6000803e3d6000fd5b505050506040513d6020811015620021ba57600080fd5b81019080805190602001909291905050501515620021dd57600091505062002270565b60008060008573ffffffffffffffffffffffffffffffffffffffff1673ffffffffffffffffffffffffffffffffffffffff16815260200190815260200160002060010160006101000a81548173ffffffffffffffffffffffffffffffffffffffff021916908373ffffffffffffffffffffffffffffffffffffffff160217905550620022698362003a7d565b5060019150505b919050565b600080600360008573ffffffffffffffffffffffffffffffffffffffff1673ffffffffffffffffffffffffffffffffffffffff16815260200190815260200160002060009054906101000a900460ff161515620022d75760009150506200247d565b620022e33385620038f8565b1515620022f55760009150506200247d565b8390508073ffffffffffffffffffffffffffffffffffffffff166377173b69846040518263ffffffff167c01000000000000000000000000000000000000000000000000000000000281526004018080602001828103825283818151815260200191508051906020019080838360005b838110156200238257808201518184015260208101905062002365565b50505050905090810190601f168015620023b05780820380516001836020036101000a031916815260200191505b5092505050602060405180830381600087803b158015620023d057600080fd5b505af1158015620023e5573d6000803e3d6000fd5b505050506040513d6020811015620023fc57600080fd5b810190808051906020019092919050505015156200241f5760009150506200247d565b826000808673ffffffffffffffffffffffffffffffffffffffff1673ffffffffffffffffffffffffffffffffffffffff16815260200190815260200160002060070190805190602001906200247692919062004210565b5060019150505b92915050565b6000600360008473ffffffffffffffffffffffffffffffffffffffff1673ffffffffffffffffffffffffffffffffffffffff16815260200190815260200160002060009054906101000a900460ff161515620024e35760009050620025f0565b620024ef3384620038f8565b1515620025005760009050620025f0565b6000808473ffffffffffffffffffffffffffffffffffffffff1673ffffffffffffffffffffffffffffffffffffffff16815260200190815260200160002060090154821115620025545760009050620025f0565b3373ffffffffffffffffffffffffffffffffffffffff166108fc839081150290604051600060405180830381858888f193505050501580156200259b573d6000803e3d6000fd5b50816000808573ffffffffffffffffffffffffffffffffffffffff1673ffffffffffffffffffffffffffffffffffffffff16815260200190815260200160002060090160008282540392505081905550600190505b92915050565b600080600360008573ffffffffffffffffffffffffffffffffffffffff1673ffffffffffffffffffffffffffffffffffffffff16815260200190815260200160002060009054906101000a900460ff16151562002658576000915050620027fe565b620026643385620038f8565b151562002676576000915050620027fe565b8390508073ffffffffffffffffffffffffffffffffffffffff166396282ba3846040518263ffffffff167c01000000000000000000000000000000000000000000000000000000000281526004018080602001828103825283818151815260200191508051906020019080838360005b8381101562002703578082015181840152602081019050620026e6565b50505050905090810190601f168015620027315780820380516001836020036101000a031916815260200191505b5092505050602060405180830381600087803b1580156200275157600080fd5b505af115801562002766573d6000803e3d6000fd5b505050506040513d60208110156200277d57600080fd5b81019080805190602001909291905050501515620027a0576000915050620027fe565b826000808673ffffffffffffffffffffffffffffffffffffffff1673ffffffffffffffffffffffffffffffffffffffff1681526020019081526020016000206006019080519060200190620027f792919062004210565b5060019150505b92915050565b600080600360008473ffffffffffffffffffffffffffffffffffffffff1673ffffffffffffffffffffffffffffffffffffffff16815260200190815260200160002060009054906101000a900460ff161515620028665760009150506200292d565b62002872338462003d31565b1515620028845760009150506200292d565b8290508073ffffffffffffffffffffffffffffffffffffffff1663338cdca16040518163ffffffff167c0100000000000000000000000000000000000000000000000000000000028152600401602060405180830381600087803b158015620028ec57600080fd5b505af115801562002901573d6000803e3d6000fd5b505050506040513d60208110156200291857600080fd5b81019080805190602001909291905050509150505b919050565b60006200293e6200416a565b600030878787876200294f62004297565b808673ffffffffffffffffffffffffffffffffffffffff1673ffffffffffffffffffffffffffffffffffffffff1681526020018060200180602001858152602001848152602001838103835287818151815260200191508051906020019080838360005b83811015620029d0578082015181840152602081019050620029b3565b50505050905090810190601f168015620029fe5780820380516001836020036101000a031916815260200191505b50838103825286818151815260200191508051906020019080838360005b8381101562002a3957808201518184015260208101905062002a1c565b50505050905090810190601f16801562002a675780820380516001836020036101000a031916815260200191505b50975050505050505050604051809103906000f08015801562002a8e573d6000803e3d6000fd5b50905080826000019073ffffffffffffffffffffffffffffffffffffffff16908173ffffffffffffffffffffffffffffffffffffffff168152505033826020019073ffffffffffffffffffffffffffffffffffffffff16908173ffffffffffffffffffffffffffffffffffffffff16815250506000826040019073ffffffffffffffffffffffffffffffffffffffff16908173ffffffffffffffffffffffffffffffffffffffff1681525050602060405190810160405280600081525082606001819052506000826080019015159081151581525050428260a0018181525050868260c00181905250858260e0018190525084826101000181815250506000826101200181815250506000826101400181815250508382610160018181525050600160003373ffffffffffffffffffffffffffffffffffffffff1673ffffffffffffffffffffffffffffffffffffffff1681526020019081526020016000208190806001815401808255809150509060018203906000526020600020016000909192909190916101000a81548173ffffffffffffffffffffffffffffffffffffffff021916908373ffffffffffffffffffffffffffffffffffffffff16021790555050816000808373ffffffffffffffffffffffffffffffffffffffff1673ffffffffffffffffffffffffffffffffffffffff16815260200190815260200160002060008201518160000160006101000a81548173ffffffffffffffffffffffffffffffffffffffff021916908373ffffffffffffffffffffffffffffffffffffffff16021790555060208201518160010160006101000a81548173ffffffffffffffffffffffffffffffffffffffff021916908373ffffffffffffffffffffffffffffffffffffffff16021790555060408201518160020160006101000a81548173ffffffffffffffffffffffffffffffffffffffff021916908373ffffffffffffffffffffffffffffffffffffffff160217905550606082015181600301908051906020019062002d83929190620042a8565b5060808201518160040160006101000a81548160ff02191690831515021790555060a0820151816005015560c082015181600601908051906020019062002dcc929190620042a8565b5060e082015181600701908051906020019062002deb929190620042a8565b506101008201518160080155610120820151816009015561014082015181600a015561016082015181600b01559050506001600360008373ffffffffffffffffffffffffffffffffffffffff1673ffffffffffffffffffffffffffffffffffffffff16815260200190815260200160002060006101000a81548160ff021916908315150217905550600192505050949350505050565b6000600360008373ffffffffffffffffffffffffffffffffffffffff1673ffffffffffffffffffffffffffffffffffffffff16815260200190815260200160002060009054906101000a900460ff16151562002ee1576000905062002f35565b346000808473ffffffffffffffffffffffffffffffffffffffff1673ffffffffffffffffffffffffffffffffffffffff168152602001908152602001600020600a0160008282540192505081905550600190505b919050565b600080600360008573ffffffffffffffffffffffffffffffffffffffff1673ffffffffffffffffffffffffffffffffffffffff16815260200190815260200160002060009054906101000a900460ff16151562002f9c576000915050620030c8565b62002fa83385620038f8565b151562002fba576000915050620030c8565b8390508073ffffffffffffffffffffffffffffffffffffffff16636d93c3ba846040518263ffffffff167c010000000000000000000000000000000000000000000000000000000002815260040180828152602001915050602060405180830381600087803b1580156200302d57600080fd5b505af115801562003042573d6000803e3d6000fd5b505050506040513d60208110156200305957600080fd5b810190808051906020019092919050505015156200307c576000915050620030c8565b826000808673ffffffffffffffffffffffffffffffffffffffff1673ffffffffffffffffffffffffffffffffffffffff168152602001908152602001600020600b018190555060019150505b92915050565b6000600260003373ffffffffffffffffffffffffffffffffffffffff1673ffffffffffffffffffffffffffffffffffffffff16815260200190815260200160002080549050905090565b600081600260003373ffffffffffffffffffffffffffffffffffffffff1673ffffffffffffffffffffffffffffffffffffffff16815260200190815260200160002080549050111515620031705760009050620031eb565b600260003373ffffffffffffffffffffffffffffffffffffffff1673ffffffffffffffffffffffffffffffffffffffff16815260200190815260200160002082815481101515620031bd57fe5b9060005260206000200160009054906101000a900473ffffffffffffffffffffffffffffffffffffffff1690505b919050565b6000600260008373ffffffffffffffffffffffffffffffffffffffff1673ffffffffffffffffffffffffffffffffffffffff168152602001908152602001600020805490509050919050565b600081600160008573ffffffffffffffffffffffffffffffffffffffff1673ffffffffffffffffffffffffffffffffffffffff168152602001908152602001600020805490501115156200329457600090506200330f565b600160008473ffffffffffffffffffffffffffffffffffffffff1673ffffffffffffffffffffffffffffffffffffffff16815260200190815260200160002082815481101515620032e157fe5b9060005260206000200160009054906101000a900473ffffffffffffffffffffffffffffffffffffffff1690505b92915050565b600081600260008573ffffffffffffffffffffffffffffffffffffffff1673ffffffffffffffffffffffffffffffffffffffff168152602001908152602001600020805490501115156200336d5760009050620033e8565b600260008473ffffffffffffffffffffffffffffffffffffffff1673ffffffffffffffffffffffffffffffffffffffff16815260200190815260200160002082815481101515620033ba57fe5b9060005260206000200160009054906101000a900473ffffffffffffffffffffffffffffffffffffffff1690505b92915050565b600080600360008573ffffffffffffffffffffffffffffffffffffffff1673ffffffffffffffffffffffffffffffffffffffff16815260200190815260200160002060009054906101000a900460ff161515620034505760009150506200357c565b6200345c3385620038f8565b15156200346e5760009150506200357c565b8390508073ffffffffffffffffffffffffffffffffffffffff166344a0d68a846040518263ffffffff167c010000000000000000000000000000000000000000000000000000000002815260040180828152602001915050602060405180830381600087803b158015620034e157600080fd5b505af1158015620034f6573d6000803e3d6000fd5b505050506040513d60208110156200350d57600080fd5b81019080805190602001909291905050501515620035305760009150506200357c565b826000808673ffffffffffffffffffffffffffffffffffffffff1673ffffffffffffffffffffffffffffffffffffffff1681526020019081526020016000206008018190555060019150505b92915050565b600081600160003373ffffffffffffffffffffffffffffffffffffffff1673ffffffffffffffffffffffffffffffffffffffff16815260200190815260200160002080549050111515620035da576000905062003655565b600160003373ffffffffffffffffffffffffffffffffffffffff1673ffffffffffffffffffffffffffffffffffffffff168152602001908152602001600020828154811015156200362757fe5b9060005260206000200160009054906101000a900473ffffffffffffffffffffffffffffffffffffffff1690505b919050565b6000600160003373ffffffffffffffffffffffffffffffffffffffff1673ffffffffffffffffffffffffffffffffffffffff16815260200190815260200160002080549050905090565b600160205281600052604060002081815481101515620036c057fe5b906000526020600020016000915091509054906101000a900473ffffffffffffffffffffffffffffffffffffffff1681565b600080600360008473ffffffffffffffffffffffffffffffffffffffff1673ffffffffffffffffffffffffffffffffffffffff16815260200190815260200160002060009054906101000a900460ff16151562003754576000915050620038f3565b62003760338462003d31565b151562003772576000915050620038f3565b8290508073ffffffffffffffffffffffffffffffffffffffff1663fc083500336040518263ffffffff167c0100000000000000000000000000000000000000000000000000000000028152600401808273ffffffffffffffffffffffffffffffffffffffff1673ffffffffffffffffffffffffffffffffffffffff168152602001915050602060405180830381600087803b1580156200381157600080fd5b505af115801562003826573d6000803e3d6000fd5b505050506040513d60208110156200383d57600080fd5b8101908080519060200190929190505050151562003860576000915050620038f3565b60008060008573ffffffffffffffffffffffffffffffffffffffff1673ffffffffffffffffffffffffffffffffffffffff16815260200190815260200160002060020160006101000a81548173ffffffffffffffffffffffffffffffffffffffff021916908373ffffffffffffffffffffffffffffffffffffffff160217905550620038ec8362003eb6565b5060019150505b919050565b600080600160008573ffffffffffffffffffffffffffffffffffffffff1673ffffffffffffffffffffffffffffffffffffffff16815260200190815260200160002080549050905060008090506000600160008773ffffffffffffffffffffffffffffffffffffffff1673ffffffffffffffffffffffffffffffffffffffff168152602001908152602001600020805490501115156200399e5760009250505062003a77565b600090505b8181101562003a70578373ffffffffffffffffffffffffffffffffffffffff16600160008773ffffffffffffffffffffffffffffffffffffffff1673ffffffffffffffffffffffffffffffffffffffff1681526020019081526020016000208281548110151562003a1057fe5b9060005260206000200160009054906101000a900473ffffffffffffffffffffffffffffffffffffffff1673ffffffffffffffffffffffffffffffffffffffff16141562003a645760019250505062003a77565b806001019050620039a3565b6000925050505b92915050565b600080600160003373ffffffffffffffffffffffffffffffffffffffff1673ffffffffffffffffffffffffffffffffffffffff168152602001908152602001600020805490509050600080905060008211151562003ae15760009250505062003d2c565b600090505b8181101562003d25578373ffffffffffffffffffffffffffffffffffffffff16600160003373ffffffffffffffffffffffffffffffffffffffff1673ffffffffffffffffffffffffffffffffffffffff1681526020019081526020016000208281548110151562003b5357fe5b9060005260206000200160009054906101000a900473ffffffffffffffffffffffffffffffffffffffff1673ffffffffffffffffffffffffffffffffffffffff16141562003d1957600182038114151562003cb957600160003373ffffffffffffffffffffffffffffffffffffffff1673ffffffffffffffffffffffffffffffffffffffff1681526020019081526020016000206001830381548110151562003bf857fe5b9060005260206000200160009054906101000a900473ffffffffffffffffffffffffffffffffffffffff16600160003373ffffffffffffffffffffffffffffffffffffffff1673ffffffffffffffffffffffffffffffffffffffff1681526020019081526020016000208281548110151562003c7057fe5b9060005260206000200160006101000a81548173ffffffffffffffffffffffffffffffffffffffff021916908373ffffffffffffffffffffffffffffffffffffffff1602179055505b600160003373ffffffffffffffffffffffffffffffffffffffff1673ffffffffffffffffffffffffffffffffffffffff168152602001908152602001600020805460019003908162003d0c91906200432f565b5060019250505062003d2c565b80600101905062003ae6565b6000925050505b919050565b600080600260008573ffffffffffffffffffffffffffffffffffffffff1673ffffffffffffffffffffffffffffffffffffffff16815260200190815260200160002080549050905060008090506000600260008773ffffffffffffffffffffffffffffffffffffffff1673ffffffffffffffffffffffffffffffffffffffff1681526020019081526020016000208054905011151562003dd75760009250505062003eb0565b600090505b8181101562003ea9578373ffffffffffffffffffffffffffffffffffffffff16600260008773ffffffffffffffffffffffffffffffffffffffff1673ffffffffffffffffffffffffffffffffffffffff1681526020019081526020016000208281548110151562003e4957fe5b9060005260206000200160009054906101000a900473ffffffffffffffffffffffffffffffffffffffff1673ffffffffffffffffffffffffffffffffffffffff16141562003e9d5760019250505062003eb0565b80600101905062003ddc565b6000925050505b92915050565b600080600260003373ffffffffffffffffffffffffffffffffffffffff1673ffffffffffffffffffffffffffffffffffffffff168152602001908152602001600020805490509050600080905060008211151562003f1a5760009250505062004165565b600090505b818110156200415e578373ffffffffffffffffffffffffffffffffffffffff16600260003373ffffffffffffffffffffffffffffffffffffffff1673ffffffffffffffffffffffffffffffffffffffff1681526020019081526020016000208281548110151562003f8c57fe5b9060005260206000200160009054906101000a900473ffffffffffffffffffffffffffffffffffffffff1673ffffffffffffffffffffffffffffffffffffffff16141562004152576001820381141515620040f257600260003373ffffffffffffffffffffffffffffffffffffffff1673ffffffffffffffffffffffffffffffffffffffff168152602001908152602001600020600183038154811015156200403157fe5b9060005260206000200160009054906101000a900473ffffffffffffffffffffffffffffffffffffffff16600260003373ffffffffffffffffffffffffffffffffffffffff1673ffffffffffffffffffffffffffffffffffffffff16815260200190815260200160002082815481101515620040a957fe5b9060005260206000200160006101000a81548173ffffffffffffffffffffffffffffffffffffffff021916908373ffffffffffffffffffffffffffffffffffffffff1602179055505b600260003373ffffffffffffffffffffffffffffffffffffffff1673ffffffffffffffffffffffffffffffffffffffff16815260200190815260200160002080546001900390816200414591906200432f565b5060019250505062004165565b80600101905062003f1f565b6000925050505b919050565b61018060405190810160405280600073ffffffffffffffffffffffffffffffffffffffff168152602001600073ffffffffffffffffffffffffffffffffffffffff168152602001600073ffffffffffffffffffffffffffffffffffffffff16815260200160608152602001600015158152602001600081526020016060815260200160608152602001600081526020016000815260200160008152602001600081525090565b828054600181600116156101000203166002900490600052602060002090601f016020900481019282601f106200425357805160ff191683800117855562004284565b8280016001018555821562004284579182015b828111156200428357825182559160200191906001019062004266565b5b5090506200429391906200435e565b5090565b6040516115f3806200438783390190565b828054600181600116156101000203166002900490600052602060002090601f016020900481019282601f10620042eb57805160ff19168380011785556200431c565b828001600101855582156200431c579182015b828111156200431b578251825591602001919060010190620042fe565b5b5090506200432b91906200435e565b5090565b81548183558181111562004359578183600052602060002091820191016200435891906200435e565b5b505050565b6200438391905b808211156200437f57600081600090555060010162004365565b5090565b9056fe60806040523480156200001157600080fd5b50604051620015f3380380620015f3833981018060405260a08110156200003757600080fd5b810190808051906020019092919080516401000000008111156200005a57600080fd5b828101905060208101848111156200007157600080fd5b81518560018202830111640100000000821117156200008f57600080fd5b50509291906020018051640100000000811115620000ac57600080fd5b82810190506020810184811115620000c357600080fd5b8151856001820283011164010000000082111715620000e157600080fd5b50509291906020018051906020019092919080519060200190929190505050846000806101000a81548173ffffffffffffffffffffffffffffffffffffffff021916908373ffffffffffffffffffffffffffffffffffffffff160217905550836005908051906020019062000158929190620001e9565b50826006908051906020019062000171929190620001e9565b508160078190555080600a819055506000600460006101000a81548160ff02191690836003811115620001a057fe5b0217905550602060405190810160405280600081525060029080519060200190620001cd929190620001e9565b5060006009819055506000600881905550505050505062000298565b828054600181600116156101000203166002900490600052602060002090601f016020900481019282601f106200022c57805160ff19168380011785556200025d565b828001600101855582156200025d579182015b828111156200025c5782518255916020019190600101906200023f565b5b5090506200026c919062000270565b5090565b6200029591905b808211156200029157600081600090555060010162000277565b5090565b90565b61134b80620002a86000396000f3fe60806040526004361061010c576000357c010000000000000000000000000000000000000000000000000000000090048063085d48831461011e578063338cdca1146101755780633d7403a3146101a457806344a0d68a14610284578063461841b5146102d75780636175ff00146103675780636d93c3ba146103f75780637150d8ae1461044a57806373d4a13a146104a157806377173b691461053157806378aaaac31461061157806396282ba31461067a578063b20c1a2b1461075a578063c046371114610789578063c65af622146107b4578063c7af3dd1146107df578063d0e30db01461080a578063d6f1926214610814578063eef49ee31461083f578063fc0835001461086a575b34600960008282540192505081905550005b34801561012a57600080fd5b506101336108d3565b604051808273ffffffffffffffffffffffffffffffffffffffff1673ffffffffffffffffffffffffffffffffffffffff16815260200191505060405180910390f35b34801561018157600080fd5b5061018a6108f8565b604051808215151515815260200191505060405180910390f35b3480156101b057600080fd5b5061026a600480360360208110156101c757600080fd5b81019080803590602001906401000000008111156101e457600080fd5b8201836020820111156101f657600080fd5b8035906020019184600183028401116401000000008311171561021857600080fd5b91908080601f016020809104026020016040519081016040528093929190818152602001838380828437600081840152601f19601f820116905080830192505050505050509192919290505050610970565b604051808215151515815260200191505060405180910390f35b34801561029057600080fd5b506102bd600480360360208110156102a757600080fd5b8101908080359060200190929190505050610a42565b604051808215151515815260200191505060405180910390f35b3480156102e357600080fd5b506102ec610ac2565b6040518080602001828103825283818151815260200191508051906020019080838360005b8381101561032c578082015181840152602081019050610311565b50505050905090810190601f1680156103595780820380516001836020036101000a031916815260200191505b509250505060405180910390f35b34801561037357600080fd5b5061037c610b60565b6040518080602001828103825283818151815260200191508051906020019080838360005b838110156103bc5780820151818401526020810190506103a1565b50505050905090810190601f1680156103e95780820380516001836020036101000a031916815260200191505b509250505060405180910390f35b34801561040357600080fd5b506104306004803603602081101561041a57600080fd5b8101908080359060200190929190505050610bfe565b604051808215151515815260200191505060405180910390f35b34801561045657600080fd5b5061045f610c7e565b604051808273ffffffffffffffffffffffffffffffffffffffff1673ffffffffffffffffffffffffffffffffffffffff16815260200191505060405180910390f35b3480156104ad57600080fd5b506104b6610ca4565b6040518080602001828103825283818151815260200191508051906020019080838360005b838110156104f65780820151818401526020810190506104db565b50505050905090810190601f1680156105235780820380516001836020036101000a031916815260200191505b509250505060405180910390f35b34801561053d57600080fd5b506105f76004803603602081101561055457600080fd5b810190808035906020019064010000000081111561057157600080fd5b82018360208201111561058357600080fd5b803590602001918460018302840111640100000000831117156105a557600080fd5b91908080601f016020809104026020016040519081016040528093929190818152602001838380828437600081840152601f19601f820116905080830192505050505050509192919290505050610d42565b604051808215151515815260200191505060405180910390f35b34801561061d57600080fd5b506106606004803603602081101561063457600080fd5b81019080803573ffffffffffffffffffffffffffffffffffffffff169060200190929190505050610dd2565b604051808215151515815260200191505060405180910390f35b34801561068657600080fd5b506107406004803603602081101561069d57600080fd5b81019080803590602001906401000000008111156106ba57600080fd5b8201836020820111156106cc57600080fd5b803590602001918460018302840111640100000000831117156106ee57600080fd5b91908080601f016020809104026020016040519081016040528093929190818152602001838380828437600081840152601f19601f820116905080830192505050505050509192919290505050610f73565b604051808215151515815260200191505060405180910390f35b34801561076657600080fd5b5061076f611003565b604051808215151515815260200191505060405180910390f35b34801561079557600080fd5b5061079e6110a8565b6040518082815260200191505060405180910390f35b3480156107c057600080fd5b506107c96110ae565b6040518082815260200191505060405180910390f35b3480156107eb57600080fd5b506107f46110b4565b6040518082815260200191505060405180910390f35b6108126110ba565b005b34801561082057600080fd5b506108296110cc565b6040518082815260200191505060405180910390f35b34801561084b57600080fd5b506108546110d2565b6040518082815260200191505060405180910390f35b34801561087657600080fd5b506108b96004803603602081101561088d57600080fd5b81019080803573ffffffffffffffffffffffffffffffffffffffff1690602001909291905050506110d8565b604051808215151515815260200191505060405180910390f35b6000809054906101000a900473ffffffffffffffffffffffffffffffffffffffff1681565b6000600160009054906101000a900473ffffffffffffffffffffffffffffffffffffffff1673ffffffffffffffffffffffffffffffffffffffff163373ffffffffffffffffffffffffffffffffffffffff1614158061095a5750600754600954105b15610968576000905061096d565b600190505b90565b60008060009054906101000a900473ffffffffffffffffffffffffffffffffffffffff1673ffffffffffffffffffffffffffffffffffffffff163373ffffffffffffffffffffffffffffffffffffffff161415156109d15760009050610a3d565b600a546003540142101515610a1a5760075460095410156109f55760009050610a3d565b6007546009600082825403925050819055506007546008600082825401925050819055505b8160029080519060200190610a3092919061127a565b5042600381905550600190505b919050565b60008060009054906101000a900473ffffffffffffffffffffffffffffffffffffffff1673ffffffffffffffffffffffffffffffffffffffff163373ffffffffffffffffffffffffffffffffffffffff1614158015610aa357506000600954115b15610ab15760009050610abd565b81600781905550600190505b919050565b60068054600181600116156101000203166002900480601f016020809104026020016040519081016040528092919081815260200182805460018160011615610100020316600290048015610b585780601f10610b2d57610100808354040283529160200191610b58565b820191906000526020600020905b815481529060010190602001808311610b3b57829003601f168201915b505050505081565b60058054600181600116156101000203166002900480601f016020809104026020016040519081016040528092919081815260200182805460018160011615610100020316600290048015610bf65780601f10610bcb57610100808354040283529160200191610bf6565b820191906000526020600020905b815481529060010190602001808311610bd957829003601f168201915b505050505081565b60008060009054906101000a900473ffffffffffffffffffffffffffffffffffffffff1673ffffffffffffffffffffffffffffffffffffffff163373ffffffffffffffffffffffffffffffffffffffff1614158015610c5f57506000600954115b15610c6d5760009050610c79565b81600a81905550600190505b919050565b600160009054906101000a900473ffffffffffffffffffffffffffffffffffffffff1681565b60028054600181600116156101000203166002900480601f016020809104026020016040519081016040528092919081815260200182805460018160011615610100020316600290048015610d3a5780601f10610d0f57610100808354040283529160200191610d3a565b820191906000526020600020905b815481529060010190602001808311610d1d57829003601f168201915b505050505081565b60008060009054906101000a900473ffffffffffffffffffffffffffffffffffffffff1673ffffffffffffffffffffffffffffffffffffffff163373ffffffffffffffffffffffffffffffffffffffff1614158015610da357506000600954115b15610db15760009050610dcd565b8160069080519060200190610dc792919061127a565b50600190505b919050565b60008073e0ee11bcf2775554efd4356cd139f7b854ba6b2290506000809054906101000a900473ffffffffffffffffffffffffffffffffffffffff1673ffffffffffffffffffffffffffffffffffffffff163373ffffffffffffffffffffffffffffffffffffffff16141515610e4c576000915050610f6e565b600073ffffffffffffffffffffffffffffffffffffffff168373ffffffffffffffffffffffffffffffffffffffff16141515610ed0578073ffffffffffffffffffffffffffffffffffffffff166108fc6008549081150290604051600060405180830381858888f19350505050158015610eca573d6000803e3d6000fd5b50610f3c565b600160009054906101000a900473ffffffffffffffffffffffffffffffffffffffff1673ffffffffffffffffffffffffffffffffffffffff166108fc6008549081150290604051600060405180830381858888f19350505050158015610f3a573d6000803e3d6000fd5b505b60006008819055506003600460006101000a81548160ff02191690836003811115610f6357fe5b021790555060019150505b919050565b60008060009054906101000a900473ffffffffffffffffffffffffffffffffffffffff1673ffffffffffffffffffffffffffffffffffffffff163373ffffffffffffffffffffffffffffffffffffffff1614158015610fd457506000600954115b15610fe25760009050610ffe565b8160059080519060200190610ff892919061127a565b50600190505b919050565b600080600381111561101157fe5b600460009054906101000a900460ff16600381111561102c57fe5b14156110a05733600160006101000a81548173ffffffffffffffffffffffffffffffffffffffff021916908373ffffffffffffffffffffffffffffffffffffffff1602179055506001600460006101000a81548160ff0219169083600381111561109257fe5b0217905550600190506110a5565b600090505b90565b60035481565b600a5481565b60075481565b34600960008282540192505081905550565b60085481565b60095481565b60008073e0ee11bcf2775554efd4356cd139f7b854ba6b229050600160009054906101000a900473ffffffffffffffffffffffffffffffffffffffff1673ffffffffffffffffffffffffffffffffffffffff163373ffffffffffffffffffffffffffffffffffffffff16141515611153576000915050611275565b600073ffffffffffffffffffffffffffffffffffffffff168373ffffffffffffffffffffffffffffffffffffffff161415156111d7578073ffffffffffffffffffffffffffffffffffffffff166108fc6009549081150290604051600060405180830381858888f193505050501580156111d1573d6000803e3d6000fd5b50611243565b600160009054906101000a900473ffffffffffffffffffffffffffffffffffffffff1673ffffffffffffffffffffffffffffffffffffffff166108fc6009549081150290604051600060405180830381858888f19350505050158015611241573d6000803e3d6000fd5b505b60006009819055506003600460006101000a81548160ff0219169083600381111561126a57fe5b021790555060019150505b919050565b828054600181600116156101000203166002900490600052602060002090601f016020900481019282601f106112bb57805160ff19168380011785556112e9565b828001600101855582156112e9579182015b828111156112e85782518255916020019190600101906112cd565b5b5090506112f691906112fa565b5090565b61131c91905b80821115611318576000816000905550600101611300565b5090565b9056fea165627a7a7230582079ac9417a49b7a43e972d662d7ea857ae1c9e7a681ce965ca82e9182e3e100600029a165627a7a7230582099656b6a48e6652086d38ac42b547fb00141cdb33a64ed5fb3d3757886974c1f0029",
  "source": "pragma solidity ^0.5.0;\n\nimport './oracle.sol';\n\ncontract Aggregator{\n\n   struct OracleStruct{\n      address payable contractAddr;\n      address payable provider;\n      address payable buyer;\n      \n      string data;\n      bool needsUpdate;\n      uint lastUpdate;\n\n      string dataType;\n      string dataFormat;\n      uint updateCost;\n      uint earned;\n      uint deposited;\n      uint updateCycle;\n   }\n\n   //Grabs oracle struct based on address\n   mapping(address => OracleStruct) public oracleStruct;\n   \n   mapping(address => address[]) public contractsOwned;\n   mapping(address => address[]) public contractsTaken;\n   mapping(address => bool) public contractExists;\n   \n   function createOracle(\n      string memory dtype, \n      string memory dformat, \n      uint cost,\n      uint cycle\n   )public returns(bool success){\n      OracleStruct memory os;\n      address contractAddr = address(new Oracle(\n         address(uint160(address(this))),\n         dtype,\n         dformat,\n         cost,\n         cycle\n      ));\n\n      os.contractAddr = address(uint160(address(contractAddr)));\n      os.provider = address(uint160(address(msg.sender)));\n      os.buyer = address(uint160(address(0)));\n      os.data = \"\";\n      os.needsUpdate = false;\n      os.lastUpdate = now;\n      os.dataType = dtype;\n      os.dataFormat = dformat;\n      os.updateCost = cost;\n      os.earned = 0;\n      os.deposited = 0;\n      os.updateCycle = cycle;\n\n      contractsOwned[msg.sender].push(contractAddr);\n      oracleStruct[contractAddr] = os;\n      contractExists[contractAddr] = true;\n\n      return true;\n   }\n   function getAddressStruct(address oracle)public view returns(\n      address contractAddr,\n      address provider,\n      address buyer,\n      string memory data,\n      bool needsUpdate,\n      uint lastUpdate,\n      string memory dataType,\n      string memory dataFormat,\n      uint updateCost,\n      uint earned,\n      uint deposited,\n      uint updateCycle\n   ){\n      require(contractExists[oracle]);\n      OracleStruct memory os = oracleStruct[oracle];\n      contractAddr = os.contractAddr;\n      provider = os.provider;\n      buyer = os.buyer;\n      data = os.data;\n      needsUpdate = os.needsUpdate;\n      lastUpdate = os.lastUpdate;\n      dataType = os.dataType;\n      dataFormat = os.dataFormat;\n      updateCost = os.updateCost;\n      earned = os.earned;\n      deposited = os.deposited;\n      updateCycle = os.updateCycle;\n   }\n   function getTakenLengthAddr(address target) public view returns(uint length){\n      return contractsTaken[target].length;\n   }\n   function getOwnedLengthAddr(address target) public view returns(uint length){\n      return contractsOwned[target].length;\n   }\n   function getContractTakenAddr(address target, uint index) public view returns(address taken){\n      if(contractsTaken[target].length <= index)\n         return address(0);\n      else\n         return contractsTaken[target][index];\n   }\n   function getContractOwnedAddr(address target, uint index) public view returns(address owned){\n      if(contractsOwned[target].length <= index)\n         return address(0);\n      else\n         return contractsOwned[target][index];\n   }\n   function getTakenLength() public view returns(uint length){\n      return contractsTaken[msg.sender].length;\n   }\n   function getOwnedLength() public view returns(uint length){\n      return contractsOwned[msg.sender].length;\n   }\n   function getContractTaken(uint index) public view returns(address taken){\n      if(contractsTaken[msg.sender].length <= index)\n         return address(0);\n      else\n         return contractsTaken[msg.sender][index];\n   }\n   function getContractOwned(uint index) public view returns(address owned){\n      if(contractsOwned[msg.sender].length <= index)\n         return address(0);\n      else\n         return contractsOwned[msg.sender][index];\n   }\n   \n   /* Contract Functions */\n   function takeContract(address oracle) public returns(bool success){\n      Oracle o; \n      if(!contractExists[oracle])\n         return false;\n      o = Oracle(address(uint160(oracle)));\n      if(!(o.takeContract()))\n         return false;\n      contractsTaken[msg.sender].push(oracle);\n      oracleStruct[oracle].buyer = msg.sender;\n      return true;\n   }\n   function depositTo(address oracle) public payable returns(bool success){\n      if(!contractExists[oracle])\n         return false;\n      oracleStruct[oracle].deposited += msg.value;\n      return true;\n   }\n   function withdrawFrom(address oracle, uint amount) public returns(bool success){\n      if(!contractExists[oracle])\n         return false;\n      if(!ownsContract(msg.sender, oracle))\n         return false;\n      if(amount > oracleStruct[oracle].earned)\n         return false;\n      (msg.sender).transfer(amount);\n      oracleStruct[oracle].earned -= amount;\n      return true;\n\n   }\n   function updateContract(address oracle, string memory data) public returns(bool success){\n      Oracle o;\n      if(!contractExists[oracle])\n         return false;\n      if(!ownsContract(msg.sender, oracle))\n         return false;\n      o = Oracle(address(uint160(oracle)));\n      //if(!o.update(data))\n         //return false;\n      if(oracleStruct[oracle].lastUpdate + oracleStruct[oracle].updateCycle <= now){\n         oracleStruct[oracle].earned += oracleStruct[oracle].updateCost;\n         oracleStruct[oracle].deposited -= oracleStruct[oracle].updateCost;\n      }\n      oracleStruct[oracle].data = data;\n      oracleStruct[oracle].lastUpdate = now;\n      return true;\n   }\n   function requestContract(address payable oracle) public returns(bool success){\n      Oracle o;\n      if(!contractExists[oracle])\n         return false;\n      if(!takenContract(msg.sender, oracle))\n         return false;\n      o = Oracle(oracle);\n      return o.request();\n   }\n   function endSell(address oracle) public returns(bool success){\n      Oracle o;\n      if(!contractExists[oracle])\n         return false;\n      if(!ownsContract(msg.sender, oracle))\n         return false;\n      o = Oracle(address(uint160(oracle)));\n      if(!o.endSell(msg.sender))\n         return false;\n      oracleStruct[oracle].provider = address(0);\n      removeContractOwned(address(uint160(oracle)));\n      return true;\n   }\n   function endBuy(address oracle) public returns(bool success){\n      Oracle o;\n      if(!contractExists[oracle])\n         return false;\n      if(!takenContract(msg.sender, oracle))\n         return false;\n      o = Oracle(address(uint160(oracle)));\n      if(!o.endBuy(msg.sender))\n         return false;\n      oracleStruct[oracle].buyer = address(0);\n      removeContractTaken(address(uint160(oracle)));\n      return true;\n   }\n\n   /* Contract Parameter Edits */\n   function setType(address payable oracle, string memory dtype) public returns (bool success){\n      Oracle o;\n      if(!contractExists[oracle])\n         return false;\n      if(!ownsContract(msg.sender, oracle))\n         return false;\n      o = Oracle(oracle);\n      if(!o.setType(dtype))\n         return false;\n      oracleStruct[oracle].dataType = dtype;\n      return true;\n   }\n   function setFormat(address payable oracle, string memory format) public returns (bool success){\n      Oracle o;\n      if(!contractExists[oracle])\n         return false;\n      if(!ownsContract(msg.sender, oracle))\n         return false;\n      o = Oracle(oracle);\n      if(!o.setFormat(format))\n         return false;\n      oracleStruct[oracle].dataFormat = format;\n      return true;\n   }\n   function setCycle(address payable oracle, uint cycle) public returns(bool success){\n      Oracle o;\n      if(!contractExists[oracle])\n         return false;\n      if(!ownsContract(msg.sender, oracle))\n         return false;\n      o = Oracle(oracle);\n      if(!o.setCycle(cycle))\n         return false;\n      oracleStruct[oracle].updateCycle = cycle;\n      return true;\n   }\n   function setCost(address payable oracle, uint cost) public returns(bool success){\n      Oracle o;\n      if(!contractExists[oracle])\n         return false;\n      if(!ownsContract(msg.sender, oracle))\n         return false;\n      o = Oracle(oracle);\n      if(!o.setCost(cost))\n         return false;\n      oracleStruct[oracle].updateCost = cost;\n      return true;\n   }\n   \n   /*Internal Functions */\n   function removeContractTaken(address payable oracle) internal returns(bool success){\n      uint length = contractsTaken[msg.sender].length;\n      uint i = 0;\n      if(length <= 0)\n         return false;\n      for(i = 0; i < length; ++i){\n         if(contractsTaken[msg.sender][i] == oracle){\n            if(i != length - 1)\n               contractsTaken[msg.sender][i] = contractsTaken[msg.sender][length - 1];\n            --(contractsTaken[msg.sender].length);\n            //getDeposit\n            //return deposit to msg.sender\n            return true;\n         }\n      }\n      return false;\n   }\n   function removeContractOwned(address payable oracle) internal returns(bool success){\n      uint length = contractsOwned[msg.sender].length;\n      uint i = 0;\n      if(length <= 0)\n         return false;\n      for(i = 0; i < length; ++i){\n         if(contractsOwned[msg.sender][i] == oracle){\n            if(i != length - 1)\n               contractsOwned[msg.sender][i] = contractsOwned[msg.sender][length - 1];\n            --(contractsOwned[msg.sender].length);\n            return true;\n         }\n      }\n      return false;\n   }\n   function takenContract(address buyer, address oracle) internal view returns(bool success){\n      uint length = contractsTaken[buyer].length;\n      uint i = 0;\n      if(contractsTaken[buyer].length <= 0)\n         return false;\n      for(i = 0; i < length; ++i){\n         if(contractsTaken[buyer][i] == oracle)\n            return true;\n      }\n      return false;\n   }\n   function ownsContract(address owner, address oracle) internal view returns(bool success){\n      uint length = contractsOwned[owner].length;\n      uint i = 0;\n      if(contractsOwned[owner].length <= 0)\n         return false;\n      for(i = 0; i < length; ++i){\n         if(contractsOwned[owner][i] == oracle)\n            return true;\n      }\n      return false;\n   }\n}\n",
  "sourcePath": "/home/egutierrez/SoftwareProjects/Ethereum/blocksensor/contracts/aggregator.sol",
  "compiler": {
    "name": "solc",
    "version": "0.5.1+commit.c8a2cb62.Emscripten.clang"
  },
  "schemaVersion": "3.0.19",
  "updatedAt": "2020-12-03T09:15:39.723Z",
  "networkType": "ethereum",
  "devdoc": {
    "methods": {}
  },
  "userdoc": {
    "methods": {}
  }
}