{
  "contractName": "Aggregator",
  "abi": [
    {
      "constant": true,
      "inputs": [
        {
          "name": "",
          "type": "uint256"
        },
        {
          "name": "",
          "type": "uint256"
        }
      ],
      "name": "zipcodeSensors",
      "outputs": [
        {
          "name": "",
          "type": "address"
        }
      ],
      "payable": false,
      "stateMutability": "view",
      "type": "function"
    },
    {
      "constant": true,
      "inputs": [
        {
          "name": "",
          "type": "uint256"
        }
      ],
      "name": "zipcodePrice",
      "outputs": [
        {
          "name": "",
          "type": "uint256"
        }
      ],
      "payable": false,
      "stateMutability": "view",
      "type": "function"
    },
    {
      "constant": true,
      "inputs": [
        {
          "name": "",
          "type": "address"
        },
        {
          "name": "",
          "type": "uint256"
        }
      ],
      "name": "sensorsOwned",
      "outputs": [
        {
          "name": "",
          "type": "address"
        }
      ],
      "payable": false,
      "stateMutability": "view",
      "type": "function"
    },
    {
      "constant": false,
      "inputs": [
        {
          "name": "zip",
          "type": "uint256"
        }
      ],
      "name": "createSensor",
      "outputs": [
        {
          "name": "success",
          "type": "bool"
        }
      ],
      "payable": false,
      "stateMutability": "nonpayable",
      "type": "function"
    },
    {
      "constant": false,
      "inputs": [
        {
          "name": "zip",
          "type": "uint256"
        }
      ],
      "name": "pollZip",
      "outputs": [
        {
          "name": "t",
          "type": "uint256"
        }
      ],
      "payable": false,
      "stateMutability": "nonpayable",
      "type": "function"
    }
  ],
  "bytecode": "0x608060405230600360006101000a81548173ffffffffffffffffffffffffffffffffffffffff021916908373ffffffffffffffffffffffffffffffffffffffff16021790555034801561005157600080fd5b506109d7806100616000396000f3fe608060405260043610610067576000357c0100000000000000000000000000000000000000000000000000000000900480630eb6c5ce1461006c57806320131f6c146100f1578063c92d5bac14610140578063d9f6caf514610193578063e10a6324146101e2575b600080fd5b34801561007857600080fd5b506100af6004803603604081101561008f57600080fd5b81019080803590602001909291908035906020019092919050505061027d565b604051808273ffffffffffffffffffffffffffffffffffffffff1673ffffffffffffffffffffffffffffffffffffffff16815260200191505060405180910390f35b3480156100fd57600080fd5b5061012a6004803603602081101561011457600080fd5b81019080803590602001909291905050506102ca565b6040518082815260200191505060405180910390f35b34801561014c57600080fd5b506101796004803603602081101561016357600080fd5b81019080803590602001909291905050506102e2565b604051808215151515815260200191505060405180910390f35b34801561019f57600080fd5b506101cc600480360360208110156101b657600080fd5b81019080803590602001909291905050506104c4565b6040518082815260200191505060405180910390f35b3480156101ee57600080fd5b5061023b6004803603604081101561020557600080fd5b81019080803573ffffffffffffffffffffffffffffffffffffffff1690602001909291908035906020019092919050505061060f565b604051808273ffffffffffffffffffffffffffffffffffffffff1673ffffffffffffffffffffffffffffffffffffffff16815260200191505060405180910390f35b60016020528160005260406000208181548110151561029857fe5b906000526020600020016000915091509054906101000a900473ffffffffffffffffffffffffffffffffffffffff1681565b60026020528060005260406000206000915090505481565b60008033600360009054906101000a900473ffffffffffffffffffffffffffffffffffffffff168461031261065c565b808473ffffffffffffffffffffffffffffffffffffffff1673ffffffffffffffffffffffffffffffffffffffff1681526020018373ffffffffffffffffffffffffffffffffffffffff1673ffffffffffffffffffffffffffffffffffffffff1681526020018281526020019350505050604051809103906000f08015801561039e573d6000803e3d6000fd5b5090506000803373ffffffffffffffffffffffffffffffffffffffff1673ffffffffffffffffffffffffffffffffffffffff1681526020019081526020016000208190806001815401808255809150509060018203906000526020600020016000909192909190916101000a81548173ffffffffffffffffffffffffffffffffffffffff021916908373ffffffffffffffffffffffffffffffffffffffff16021790555050600160008481526020019081526020016000208190806001815401808255809150509060018203906000526020600020016000909192909190916101000a81548173ffffffffffffffffffffffffffffffffffffffff021916908373ffffffffffffffffffffffffffffffffffffffff160217905550506001915050919050565b60008060009050600080600091505b60016000868152602001908152602001600020805490508210156105ec57600160008681526020019081526020016000208281548110151561051157fe5b9060005260206000200160009054906101000a900473ffffffffffffffffffffffffffffffffffffffff1690508073ffffffffffffffffffffffffffffffffffffffff166331e7dede6040518163ffffffff167c0100000000000000000000000000000000000000000000000000000000028152600401602060405180830381600087803b1580156105a257600080fd5b505af11580156105b6573d6000803e3d6000fd5b505050506040513d60208110156105cc57600080fd5b8101908080519060200190929190505050830192508160010191506104d3565b600082111561060457818381151561060057fe5b0492505b829350505050919050565b60006020528160005260406000208181548110151561062a57fe5b906000526020600020016000915091509054906101000a900473ffffffffffffffffffffffffffffffffffffffff1681565b60405161033f8061066d8339019056fe608060405234801561001057600080fd5b5060405160608061033f8339810180604052606081101561003057600080fd5b81019080805190602001909291908051906020019092919080519060200190929190505050826000806101000a81548173ffffffffffffffffffffffffffffffffffffffff021916908373ffffffffffffffffffffffffffffffffffffffff16021790555081600160006101000a81548173ffffffffffffffffffffffffffffffffffffffff021916908373ffffffffffffffffffffffffffffffffffffffff160217905550806002819055506000600381905550505050610248806100f76000396000f3fe60806040526004361061005c576000357c01000000000000000000000000000000000000000000000000000000009004806331e7dede146100615780635b4b73a91461008c5780639968f951146100df578063adccea121461010a575b600080fd5b34801561006d57600080fd5b50610076610135565b6040518082815260200191505060405180910390f35b34801561009857600080fd5b506100c5600480360360208110156100af57600080fd5b810190808035906020019092919050505061019f565b604051808215151515815260200191505060405180910390f35b3480156100eb57600080fd5b506100f4610210565b6040518082815260200191505060405180910390f35b34801561011657600080fd5b5061011f610216565b6040518082815260200191505060405180910390f35b6000600160009054906101000a900473ffffffffffffffffffffffffffffffffffffffff1673ffffffffffffffffffffffffffffffffffffffff163373ffffffffffffffffffffffffffffffffffffffff16141561019757600354905061019c565b600090505b90565b60008060009054906101000a900473ffffffffffffffffffffffffffffffffffffffff1673ffffffffffffffffffffffffffffffffffffffff163373ffffffffffffffffffffffffffffffffffffffff16141561020657816003819055506001905061020b565b600090505b919050565b60025481565b6003548156fea165627a7a723058200f678a86bb6d44913bcf355393808ddad9d34901d0a6dba409e35e5ff9f60c5f0029a165627a7a72305820e17dc90a346bd5bd9b472d3c71f538aeec222b524d733327cf34d3b85f4fff8e0029",
  "source": "pragma solidity ^0.5.0;\n\nimport './sensor.sol';\n\ncontract Aggregator{\n\n   mapping(address => address[]) public sensorsOwned;\n   mapping(uint => address[]) public zipcodeSensors;\n   mapping(uint => uint) public zipcodePrice;\n   address aggregator = address(this);\n\n   function createSensor(uint zip) public returns(bool success){\n      address s = address(new Sensor(\n         msg.sender,\n         aggregator,\n         zip\n      ));\n      sensorsOwned[msg.sender].push(s);\n      zipcodeSensors[zip].push(s);\n      return true;\n   }\n\n   function pollZip(uint zip) public returns(uint t){\n      \n      uint temp = 0;\n      uint i;\n      Sensor s;\n\n      for(i = 0; i < zipcodeSensors[zip].length; ++i){\n         s = Sensor(zipcodeSensors[zip][i]);\n         temp += s.pollData();\n      }\n      if(i > 0)\n         temp = temp/i;\n      return temp;\n   }\n}\n",
  "sourcePath": "/home/egutierrez/SoftwareProjects/Ethereum/blocksensor/contracts/aggregator.sol",
  "compiler": {
    "name": "solc",
    "version": "0.5.1+commit.c8a2cb62.Emscripten.clang"
  },
  "schemaVersion": "3.0.19",
  "updatedAt": "2020-09-17T03:51:15.932Z",
  "networkType": "ethereum",
  "devdoc": {
    "methods": {}
  },
  "userdoc": {
    "methods": {}
  }
}