{
  "contractName": "Oracle",
  "abi": [
    {
      "constant": true,
      "inputs": [],
      "name": "provider",
      "outputs": [
        {
          "name": "",
          "type": "address"
        }
      ],
      "payable": false,
      "stateMutability": "view",
      "type": "function"
    },
    {
      "constant": true,
      "inputs": [],
      "name": "dataFormat",
      "outputs": [
        {
          "name": "",
          "type": "string"
        }
      ],
      "payable": false,
      "stateMutability": "view",
      "type": "function"
    },
    {
      "constant": true,
      "inputs": [],
      "name": "dataType",
      "outputs": [
        {
          "name": "",
          "type": "string"
        }
      ],
      "payable": false,
      "stateMutability": "view",
      "type": "function"
    },
    {
      "constant": true,
      "inputs": [],
      "name": "buyer",
      "outputs": [
        {
          "name": "",
          "type": "address"
        }
      ],
      "payable": false,
      "stateMutability": "view",
      "type": "function"
    },
    {
      "constant": true,
      "inputs": [],
      "name": "data",
      "outputs": [
        {
          "name": "",
          "type": "string"
        }
      ],
      "payable": false,
      "stateMutability": "view",
      "type": "function"
    },
    {
      "constant": true,
      "inputs": [],
      "name": "lastUpdate",
      "outputs": [
        {
          "name": "",
          "type": "uint256"
        }
      ],
      "payable": false,
      "stateMutability": "view",
      "type": "function"
    },
    {
      "constant": true,
      "inputs": [],
      "name": "updateCycle",
      "outputs": [
        {
          "name": "",
          "type": "uint256"
        }
      ],
      "payable": false,
      "stateMutability": "view",
      "type": "function"
    },
    {
      "constant": true,
      "inputs": [],
      "name": "updateCost",
      "outputs": [
        {
          "name": "",
          "type": "uint256"
        }
      ],
      "payable": false,
      "stateMutability": "view",
      "type": "function"
    },
    {
      "constant": true,
      "inputs": [],
      "name": "earned",
      "outputs": [
        {
          "name": "",
          "type": "uint256"
        }
      ],
      "payable": false,
      "stateMutability": "view",
      "type": "function"
    },
    {
      "constant": true,
      "inputs": [],
      "name": "deposited",
      "outputs": [
        {
          "name": "",
          "type": "uint256"
        }
      ],
      "payable": false,
      "stateMutability": "view",
      "type": "function"
    },
    {
      "inputs": [
        {
          "name": "owner",
          "type": "address"
        },
        {
          "name": "dtype",
          "type": "string"
        },
        {
          "name": "dformat",
          "type": "string"
        },
        {
          "name": "cost",
          "type": "uint256"
        },
        {
          "name": "cycle",
          "type": "uint256"
        }
      ],
      "payable": false,
      "stateMutability": "nonpayable",
      "type": "constructor"
    },
    {
      "payable": true,
      "stateMutability": "payable",
      "type": "fallback"
    },
    {
      "constant": false,
      "inputs": [],
      "name": "takeContract",
      "outputs": [
        {
          "name": "success",
          "type": "bool"
        }
      ],
      "payable": false,
      "stateMutability": "nonpayable",
      "type": "function"
    },
    {
      "constant": false,
      "inputs": [
        {
          "name": "newData",
          "type": "string"
        }
      ],
      "name": "update",
      "outputs": [
        {
          "name": "success",
          "type": "bool"
        }
      ],
      "payable": false,
      "stateMutability": "nonpayable",
      "type": "function"
    },
    {
      "constant": false,
      "inputs": [],
      "name": "request",
      "outputs": [
        {
          "name": "success",
          "type": "bool"
        }
      ],
      "payable": false,
      "stateMutability": "nonpayable",
      "type": "function"
    },
    {
      "constant": false,
      "inputs": [
        {
          "name": "proxy",
          "type": "address"
        }
      ],
      "name": "endSell",
      "outputs": [
        {
          "name": "success",
          "type": "bool"
        }
      ],
      "payable": false,
      "stateMutability": "nonpayable",
      "type": "function"
    },
    {
      "constant": false,
      "inputs": [
        {
          "name": "proxy",
          "type": "address"
        }
      ],
      "name": "endBuy",
      "outputs": [
        {
          "name": "success",
          "type": "bool"
        }
      ],
      "payable": false,
      "stateMutability": "nonpayable",
      "type": "function"
    },
    {
      "constant": false,
      "inputs": [
        {
          "name": "dtype",
          "type": "string"
        }
      ],
      "name": "setType",
      "outputs": [
        {
          "name": "success",
          "type": "bool"
        }
      ],
      "payable": false,
      "stateMutability": "nonpayable",
      "type": "function"
    },
    {
      "constant": false,
      "inputs": [
        {
          "name": "format",
          "type": "string"
        }
      ],
      "name": "setFormat",
      "outputs": [
        {
          "name": "success",
          "type": "bool"
        }
      ],
      "payable": false,
      "stateMutability": "nonpayable",
      "type": "function"
    },
    {
      "constant": false,
      "inputs": [
        {
          "name": "cycle",
          "type": "uint256"
        }
      ],
      "name": "setCycle",
      "outputs": [
        {
          "name": "success",
          "type": "bool"
        }
      ],
      "payable": false,
      "stateMutability": "nonpayable",
      "type": "function"
    },
    {
      "constant": false,
      "inputs": [
        {
          "name": "cost",
          "type": "uint256"
        }
      ],
      "name": "setCost",
      "outputs": [
        {
          "name": "success",
          "type": "bool"
        }
      ],
      "payable": false,
      "stateMutability": "nonpayable",
      "type": "function"
    },
    {
      "constant": false,
      "inputs": [],
      "name": "deposit",
      "outputs": [],
      "payable": true,
      "stateMutability": "payable",
      "type": "function"
    }
  ],
  "bytecode": "0x60806040523480156200001157600080fd5b50604051620015f3380380620015f3833981018060405260a08110156200003757600080fd5b810190808051906020019092919080516401000000008111156200005a57600080fd5b828101905060208101848111156200007157600080fd5b81518560018202830111640100000000821117156200008f57600080fd5b50509291906020018051640100000000811115620000ac57600080fd5b82810190506020810184811115620000c357600080fd5b8151856001820283011164010000000082111715620000e157600080fd5b50509291906020018051906020019092919080519060200190929190505050846000806101000a81548173ffffffffffffffffffffffffffffffffffffffff021916908373ffffffffffffffffffffffffffffffffffffffff160217905550836005908051906020019062000158929190620001e9565b50826006908051906020019062000171929190620001e9565b508160078190555080600a819055506000600460006101000a81548160ff02191690836003811115620001a057fe5b0217905550602060405190810160405280600081525060029080519060200190620001cd929190620001e9565b5060006009819055506000600881905550505050505062000298565b828054600181600116156101000203166002900490600052602060002090601f016020900481019282601f106200022c57805160ff19168380011785556200025d565b828001600101855582156200025d579182015b828111156200025c5782518255916020019190600101906200023f565b5b5090506200026c919062000270565b5090565b6200029591905b808211156200029157600081600090555060010162000277565b5090565b90565b61134b80620002a86000396000f3fe60806040526004361061010c576000357c010000000000000000000000000000000000000000000000000000000090048063085d48831461011e578063338cdca1146101755780633d7403a3146101a457806344a0d68a14610284578063461841b5146102d75780636175ff00146103675780636d93c3ba146103f75780637150d8ae1461044a57806373d4a13a146104a157806377173b691461053157806378aaaac31461061157806396282ba31461067a578063b20c1a2b1461075a578063c046371114610789578063c65af622146107b4578063c7af3dd1146107df578063d0e30db01461080a578063d6f1926214610814578063eef49ee31461083f578063fc0835001461086a575b34600960008282540192505081905550005b34801561012a57600080fd5b506101336108d3565b604051808273ffffffffffffffffffffffffffffffffffffffff1673ffffffffffffffffffffffffffffffffffffffff16815260200191505060405180910390f35b34801561018157600080fd5b5061018a6108f8565b604051808215151515815260200191505060405180910390f35b3480156101b057600080fd5b5061026a600480360360208110156101c757600080fd5b81019080803590602001906401000000008111156101e457600080fd5b8201836020820111156101f657600080fd5b8035906020019184600183028401116401000000008311171561021857600080fd5b91908080601f016020809104026020016040519081016040528093929190818152602001838380828437600081840152601f19601f820116905080830192505050505050509192919290505050610970565b604051808215151515815260200191505060405180910390f35b34801561029057600080fd5b506102bd600480360360208110156102a757600080fd5b8101908080359060200190929190505050610a42565b604051808215151515815260200191505060405180910390f35b3480156102e357600080fd5b506102ec610ac2565b6040518080602001828103825283818151815260200191508051906020019080838360005b8381101561032c578082015181840152602081019050610311565b50505050905090810190601f1680156103595780820380516001836020036101000a031916815260200191505b509250505060405180910390f35b34801561037357600080fd5b5061037c610b60565b6040518080602001828103825283818151815260200191508051906020019080838360005b838110156103bc5780820151818401526020810190506103a1565b50505050905090810190601f1680156103e95780820380516001836020036101000a031916815260200191505b509250505060405180910390f35b34801561040357600080fd5b506104306004803603602081101561041a57600080fd5b8101908080359060200190929190505050610bfe565b604051808215151515815260200191505060405180910390f35b34801561045657600080fd5b5061045f610c7e565b604051808273ffffffffffffffffffffffffffffffffffffffff1673ffffffffffffffffffffffffffffffffffffffff16815260200191505060405180910390f35b3480156104ad57600080fd5b506104b6610ca4565b6040518080602001828103825283818151815260200191508051906020019080838360005b838110156104f65780820151818401526020810190506104db565b50505050905090810190601f1680156105235780820380516001836020036101000a031916815260200191505b509250505060405180910390f35b34801561053d57600080fd5b506105f76004803603602081101561055457600080fd5b810190808035906020019064010000000081111561057157600080fd5b82018360208201111561058357600080fd5b803590602001918460018302840111640100000000831117156105a557600080fd5b91908080601f016020809104026020016040519081016040528093929190818152602001838380828437600081840152601f19601f820116905080830192505050505050509192919290505050610d42565b604051808215151515815260200191505060405180910390f35b34801561061d57600080fd5b506106606004803603602081101561063457600080fd5b81019080803573ffffffffffffffffffffffffffffffffffffffff169060200190929190505050610dd2565b604051808215151515815260200191505060405180910390f35b34801561068657600080fd5b506107406004803603602081101561069d57600080fd5b81019080803590602001906401000000008111156106ba57600080fd5b8201836020820111156106cc57600080fd5b803590602001918460018302840111640100000000831117156106ee57600080fd5b91908080601f016020809104026020016040519081016040528093929190818152602001838380828437600081840152601f19601f820116905080830192505050505050509192919290505050610f73565b604051808215151515815260200191505060405180910390f35b34801561076657600080fd5b5061076f611003565b604051808215151515815260200191505060405180910390f35b34801561079557600080fd5b5061079e6110a8565b6040518082815260200191505060405180910390f35b3480156107c057600080fd5b506107c96110ae565b6040518082815260200191505060405180910390f35b3480156107eb57600080fd5b506107f46110b4565b6040518082815260200191505060405180910390f35b6108126110ba565b005b34801561082057600080fd5b506108296110cc565b6040518082815260200191505060405180910390f35b34801561084b57600080fd5b506108546110d2565b6040518082815260200191505060405180910390f35b34801561087657600080fd5b506108b96004803603602081101561088d57600080fd5b81019080803573ffffffffffffffffffffffffffffffffffffffff1690602001909291905050506110d8565b604051808215151515815260200191505060405180910390f35b6000809054906101000a900473ffffffffffffffffffffffffffffffffffffffff1681565b6000600160009054906101000a900473ffffffffffffffffffffffffffffffffffffffff1673ffffffffffffffffffffffffffffffffffffffff163373ffffffffffffffffffffffffffffffffffffffff1614158061095a5750600754600954105b15610968576000905061096d565b600190505b90565b60008060009054906101000a900473ffffffffffffffffffffffffffffffffffffffff1673ffffffffffffffffffffffffffffffffffffffff163373ffffffffffffffffffffffffffffffffffffffff161415156109d15760009050610a3d565b600a546003540142101515610a1a5760075460095410156109f55760009050610a3d565b6007546009600082825403925050819055506007546008600082825401925050819055505b8160029080519060200190610a3092919061127a565b5042600381905550600190505b919050565b60008060009054906101000a900473ffffffffffffffffffffffffffffffffffffffff1673ffffffffffffffffffffffffffffffffffffffff163373ffffffffffffffffffffffffffffffffffffffff1614158015610aa357506000600954115b15610ab15760009050610abd565b81600781905550600190505b919050565b60068054600181600116156101000203166002900480601f016020809104026020016040519081016040528092919081815260200182805460018160011615610100020316600290048015610b585780601f10610b2d57610100808354040283529160200191610b58565b820191906000526020600020905b815481529060010190602001808311610b3b57829003601f168201915b505050505081565b60058054600181600116156101000203166002900480601f016020809104026020016040519081016040528092919081815260200182805460018160011615610100020316600290048015610bf65780601f10610bcb57610100808354040283529160200191610bf6565b820191906000526020600020905b815481529060010190602001808311610bd957829003601f168201915b505050505081565b60008060009054906101000a900473ffffffffffffffffffffffffffffffffffffffff1673ffffffffffffffffffffffffffffffffffffffff163373ffffffffffffffffffffffffffffffffffffffff1614158015610c5f57506000600954115b15610c6d5760009050610c79565b81600a81905550600190505b919050565b600160009054906101000a900473ffffffffffffffffffffffffffffffffffffffff1681565b60028054600181600116156101000203166002900480601f016020809104026020016040519081016040528092919081815260200182805460018160011615610100020316600290048015610d3a5780601f10610d0f57610100808354040283529160200191610d3a565b820191906000526020600020905b815481529060010190602001808311610d1d57829003601f168201915b505050505081565b60008060009054906101000a900473ffffffffffffffffffffffffffffffffffffffff1673ffffffffffffffffffffffffffffffffffffffff163373ffffffffffffffffffffffffffffffffffffffff1614158015610da357506000600954115b15610db15760009050610dcd565b8160069080519060200190610dc792919061127a565b50600190505b919050565b60008073e0ee11bcf2775554efd4356cd139f7b854ba6b2290506000809054906101000a900473ffffffffffffffffffffffffffffffffffffffff1673ffffffffffffffffffffffffffffffffffffffff163373ffffffffffffffffffffffffffffffffffffffff16141515610e4c576000915050610f6e565b600073ffffffffffffffffffffffffffffffffffffffff168373ffffffffffffffffffffffffffffffffffffffff16141515610ed0578073ffffffffffffffffffffffffffffffffffffffff166108fc6008549081150290604051600060405180830381858888f19350505050158015610eca573d6000803e3d6000fd5b50610f3c565b600160009054906101000a900473ffffffffffffffffffffffffffffffffffffffff1673ffffffffffffffffffffffffffffffffffffffff166108fc6008549081150290604051600060405180830381858888f19350505050158015610f3a573d6000803e3d6000fd5b505b60006008819055506003600460006101000a81548160ff02191690836003811115610f6357fe5b021790555060019150505b919050565b60008060009054906101000a900473ffffffffffffffffffffffffffffffffffffffff1673ffffffffffffffffffffffffffffffffffffffff163373ffffffffffffffffffffffffffffffffffffffff1614158015610fd457506000600954115b15610fe25760009050610ffe565b8160059080519060200190610ff892919061127a565b50600190505b919050565b600080600381111561101157fe5b600460009054906101000a900460ff16600381111561102c57fe5b14156110a05733600160006101000a81548173ffffffffffffffffffffffffffffffffffffffff021916908373ffffffffffffffffffffffffffffffffffffffff1602179055506001600460006101000a81548160ff0219169083600381111561109257fe5b0217905550600190506110a5565b600090505b90565b60035481565b600a5481565b60075481565b34600960008282540192505081905550565b60085481565b60095481565b60008073e0ee11bcf2775554efd4356cd139f7b854ba6b229050600160009054906101000a900473ffffffffffffffffffffffffffffffffffffffff1673ffffffffffffffffffffffffffffffffffffffff163373ffffffffffffffffffffffffffffffffffffffff16141515611153576000915050611275565b600073ffffffffffffffffffffffffffffffffffffffff168373ffffffffffffffffffffffffffffffffffffffff161415156111d7578073ffffffffffffffffffffffffffffffffffffffff166108fc6009549081150290604051600060405180830381858888f193505050501580156111d1573d6000803e3d6000fd5b50611243565b600160009054906101000a900473ffffffffffffffffffffffffffffffffffffffff1673ffffffffffffffffffffffffffffffffffffffff166108fc6009549081150290604051600060405180830381858888f19350505050158015611241573d6000803e3d6000fd5b505b60006009819055506003600460006101000a81548160ff0219169083600381111561126a57fe5b021790555060019150505b919050565b828054600181600116156101000203166002900490600052602060002090601f016020900481019282601f106112bb57805160ff19168380011785556112e9565b828001600101855582156112e9579182015b828111156112e85782518255916020019190600101906112cd565b5b5090506112f691906112fa565b5090565b61131c91905b80821115611318576000816000905550600101611300565b5090565b9056fea165627a7a7230582079ac9417a49b7a43e972d662d7ea857ae1c9e7a681ce965ca82e9182e3e100600029",
  "source": "pragma solidity ^0.5.0;\n\ncontract Oracle{\n   \n   address payable public provider;\n   address payable public buyer;\n   \n   string public data;\n   uint public lastUpdate;\n   enum Status { Available, Active, Paused, Ended }\n   Status status;\n\n   string public dataType;\n   string public dataFormat;\n\n   uint public updateCost;  //ether\n   uint public earned;      //ether\n   uint public deposited;   //ether\n   uint public updateCycle; //seconds\n   \n   constructor(\n      address payable owner,\n      string memory dtype,\n      string memory dformat,\n      uint cost,\n      uint cycle\n   )public{\n      provider = owner;\n      dataType = dtype;\n      dataFormat = dformat;\n      updateCost = cost;\n      updateCycle = cycle;\n      status = Status.Available;\n      data = \"\";\n      deposited = 0;\n      earned = 0;\n   }\n   function takeContract() public returns(bool success){\n      if(status == Status.Available){\n         buyer = msg.sender;\n         status = Status.Active;\n         return true;\n      }\n      return false;\n   }\n   function update(string memory newData) public returns(bool success){\n      if((msg.sender != provider))\n         return false;\n      if(now >= lastUpdate + updateCycle){\n         if(deposited < updateCost)\n            return false;\n         deposited -= updateCost;\n         earned += updateCost;\n      }\n      data = newData;\n      lastUpdate = now;\n      return true;\n   }\n   function request() public returns(bool success){\n      if((msg.sender != buyer)||(deposited < updateCost))\n         return false;\n      return true;\n   }\n   function endSell(address proxy) public returns(bool success){\n      address someuser = 0xE0Ee11BCf2775554EfD4356cD139f7b854bA6b22;\n      \n      if((msg.sender != provider))\n         return false;\n      if(proxy != address(0))\n         address(uint160(someuser)).transfer(earned);   \n      else{\n         buyer.transfer(earned);\n      }\n      earned = 0;\n      status = Status.Ended;\n      return true;\n   }\n   function endBuy(address proxy) public returns(bool success){\n      address someuser = 0xE0Ee11BCf2775554EfD4356cD139f7b854bA6b22;\n      if(msg.sender != buyer)\n         return false;\n      if(proxy != address(0))\n         address(uint160(someuser)).transfer(deposited);   \n      else{\n         buyer.transfer(deposited);\n      }\n      deposited = 0;\n      status = Status.Ended;\n      return true;\n   }\n\n   //Contract Mutators\n   function setType(string memory dtype) public returns(bool success){\n      if((msg.sender != provider)&&(deposited > 0))\n         return false;\n      dataType = dtype;\n      return true;\n   }\n   function setFormat(string memory format) public returns(bool success){\n      if((msg.sender != provider)&&(deposited > 0))\n         return false;\n      dataFormat = format;\n      return true;\n   }\n   function setCycle(uint cycle) public returns(bool success){\n      if((msg.sender != provider)&&(deposited > 0))\n         return false;\n      updateCycle = cycle;\n      return true;\n   }\n   function setCost(uint cost) public returns(bool success){\n      if((msg.sender != provider)&&(deposited > 0))\n         return false;\n      updateCost = cost;\n      return true;\n   }\n   function deposit() public payable{\n      deposited += msg.value;\n   }\n   function() external payable{\n      deposited += msg.value;\n   }\n\n}\n",
  "sourcePath": "/home/egutierrez/SoftwareProjects/Ethereum/blocksensor/contracts/oracle.sol",
  "compiler": {
    "name": "solc",
    "version": "0.5.1+commit.c8a2cb62.Emscripten.clang"
  },
  "schemaVersion": "3.0.19",
  "updatedAt": "2020-12-03T08:30:46.736Z",
  "devdoc": {
    "methods": {}
  },
  "userdoc": {
    "methods": {}
  }
}