{
  "contractName": "Sensor",
  "abi": [
    {
      "constant": true,
      "inputs": [],
      "name": "zipcode",
      "outputs": [
        {
          "name": "",
          "type": "uint256"
        }
      ],
      "payable": false,
      "stateMutability": "view",
      "type": "function"
    },
    {
      "constant": true,
      "inputs": [],
      "name": "temperature",
      "outputs": [
        {
          "name": "",
          "type": "uint256"
        }
      ],
      "payable": false,
      "stateMutability": "view",
      "type": "function"
    },
    {
      "inputs": [
        {
          "name": "provider",
          "type": "address"
        },
        {
          "name": "aggregator",
          "type": "address"
        },
        {
          "name": "zip",
          "type": "uint256"
        }
      ],
      "payable": false,
      "stateMutability": "nonpayable",
      "type": "constructor"
    },
    {
      "constant": false,
      "inputs": [
        {
          "name": "temp",
          "type": "uint256"
        }
      ],
      "name": "setData",
      "outputs": [
        {
          "name": "success",
          "type": "bool"
        }
      ],
      "payable": false,
      "stateMutability": "nonpayable",
      "type": "function"
    },
    {
      "constant": false,
      "inputs": [],
      "name": "pollData",
      "outputs": [
        {
          "name": "temp",
          "type": "uint256"
        }
      ],
      "payable": false,
      "stateMutability": "nonpayable",
      "type": "function"
    }
  ],
  "bytecode": "0x608060405234801561001057600080fd5b5060405160608061033f8339810180604052606081101561003057600080fd5b81019080805190602001909291908051906020019092919080519060200190929190505050826000806101000a81548173ffffffffffffffffffffffffffffffffffffffff021916908373ffffffffffffffffffffffffffffffffffffffff16021790555081600160006101000a81548173ffffffffffffffffffffffffffffffffffffffff021916908373ffffffffffffffffffffffffffffffffffffffff160217905550806002819055506000600381905550505050610248806100f76000396000f3fe60806040526004361061005c576000357c01000000000000000000000000000000000000000000000000000000009004806331e7dede146100615780635b4b73a91461008c5780639968f951146100df578063adccea121461010a575b600080fd5b34801561006d57600080fd5b50610076610135565b6040518082815260200191505060405180910390f35b34801561009857600080fd5b506100c5600480360360208110156100af57600080fd5b810190808035906020019092919050505061019f565b604051808215151515815260200191505060405180910390f35b3480156100eb57600080fd5b506100f4610210565b6040518082815260200191505060405180910390f35b34801561011657600080fd5b5061011f610216565b6040518082815260200191505060405180910390f35b6000600160009054906101000a900473ffffffffffffffffffffffffffffffffffffffff1673ffffffffffffffffffffffffffffffffffffffff163373ffffffffffffffffffffffffffffffffffffffff16141561019757600354905061019c565b600090505b90565b60008060009054906101000a900473ffffffffffffffffffffffffffffffffffffffff1673ffffffffffffffffffffffffffffffffffffffff163373ffffffffffffffffffffffffffffffffffffffff16141561020657816003819055506001905061020b565b600090505b919050565b60025481565b6003548156fea165627a7a723058200f678a86bb6d44913bcf355393808ddad9d34901d0a6dba409e35e5ff9f60c5f0029",
  "source": "pragma solidity ^0.5.0;\n\ncontract Sensor {\n\n   address dataProvider;\n   address dataAggregator;\n\n   uint public zipcode;\n   uint public temperature;\n\n   constructor(\n      address provider,\n      address aggregator,\n      uint zip\n   )public{\n      dataProvider = provider;\n      dataAggregator = aggregator;\n      zipcode = zip;\n      temperature = 0;\n   }\n\n   function setData(uint temp) public returns(bool success){\n      if(msg.sender == dataProvider){\n         temperature = temp;\n         return true;\n      }\n      return false;\n   }\n\n   function pollData() public returns(uint temp){\n      if(msg.sender == dataAggregator)\n         return temperature;\n      else\n         return 0;\n   }\n}\n",
  "sourcePath": "/home/egutierrez/SoftwareProjects/Ethereum/blocksensor/contracts/sensor.sol",
  "compiler": {
    "name": "solc",
    "version": "0.5.1+commit.c8a2cb62.Emscripten.clang"
  },
  "schemaVersion": "3.0.19",
  "updatedAt": "2020-09-15T06:37:52.922Z",
  "devdoc": {
    "methods": {}
  },
  "userdoc": {
    "methods": {}
  }
}